:020000000129D4
:10000600103083120313FD00FD0B072800000800C3
:10001600083083120313FC002330FD00FD0B11286A
:06002600FC0B112808008C
:04002C0000000800C8
:1000300083120313D11B1E2888131F288817511BF6
:100040002328081324280817D11A282888122928B9
:100050008816511A2D2808122E28081649183228F9
:10006000881433288810081416200810D1193A284B
:1000700088133B28881751193F2808134028081770
:10008000D118442888124528881651184928081282
:100090004A28081649184E2888144F288810081432
:1000A00016200810491C56280B205728032008004A
:0E00B000831203134B088A004A0882000800DE
:1000BE008312031349105008D10018204914080068
:1000CE008316031308108810081288120813881359
:1000DE0083120810881088130813881208120B2038
:1000EE000B200B20881608160814162008100B205B
:1000FE000814162008100B200814162008100B20C8
:10010E0008120814162008100B20081416200810C8
:10011E00881288170814162008100B20881308164A
:10012E0008141620081008120814162008100B20A8
:10013E0008141620081008160814162008100B2094
:10014E0008120814162008108817081788160816A3
:0C015E000814162008100B20491408009B
:10016A00C728803083120313CC00DA28C030CC00B1
:10017A00DA289430CC00DA28D430CC00DA2880305F
:10018A00CC00DA28831203134C08013A0319B62863
:10019A004C08023A0319BB284C08033A0319BE2833
:1001AA004C08043A0319C128C4284D03F0004C082E
:1001BA00F0077008CC007008D10018204910CF0150
:1001CA004F084E07840000080319F3284F084E070A
:1001DA0084000008D0005F20CF0AE52849140800EF
:1001EA0058208A110A128000840ACA0A0319CB0A03
:0801FA00F003031DF5280800C5
:10020200942167200130CC000130CD003E30CE0079
:10021200B5200630FB001330FC00AD30FD00FD0BB5
:100222001029FC0B1029FB0B1029000000000130E3
:10023200D10018200130CC000130CD002A30CE0090
:10024200B5200630FB001330FC00AD30FD00FD0B85
:100252002829FC0B2829FB0B28290000000001306B
:10026200D10018200130CC000130CD002030CE006A
:10027200B5200630FB001330FC00AD30FD00FD0B55
:100282004029FC0B4029FB0B4029000000000130F3
:10029200D10018200130CC000130CD003130CE0029
:1002A200B5200630FB001330FC00AD30FD00FD0B25
:1002B2005829FC0B5829FB0B58290000000001307B
:0802C200D10018200329642972
:1003280020308400293083120313F0006A30CA0099
:080338000130CB00F5200800A4
:1002D4005334493447344E344F3420344C34453449
:0402E4004F3400345F
:0E02E80052344F345234493447344F340034CA
:1002F60043342E3449343A342034373433343034AA
:0A030600393436343634353400340F
:1003100048344F344C34413420344D3455344E3409
:0603200044344F340034A8
:02400E004A2F37
:00000001FF
