:1000000001308A0061290000FF00030E8301A10076
:100010000A08A0008A010408A2007708A300780853
:10002000A4007908A5007A08A600831383128B1D0B
:100030001B280B1830288B1E1F280B193328220869
:1000400084002308F7002408F8002508F900260892
:10005000FA0020088A00210E8300FF0E7F0E09009F
:100060008A110A122C298A110A1236280130A70790
:100070000318A80AA808031D412827084E3C0318A6
:100080004328A801A701A808031D4F282908270213
:1000900003184F2883160810831208145328831658
:1000A000081083120810A808031D5F282A082702D9
:1000B00003185F2883168810831288146328831618
:1000C000881083128810A808031D6F282B082702A8
:1000D00003186F28831608118312081573288316D6
:1000E0000811831208110B118A110A121F283608F1
:1000F0003402BE003508BF003708031C370FBF02AB
:100100003A083C02F7003D08FA003B08031C3B0F8D
:10011000FA027708C0007A08C1003F08C3003E0811
:10012000C2004108C5004008C4001030C600F701F5
:10013000FA01C30CC20C031CA3284408F7070318D8
:10014000FA0A4508FA07FA0CF70CF90CF80CC60B7A
:1001500099287908BF007808BE0036083802F700F1
:100160003908FA003708031C370FFA027708C00075
:100170007A08C1003F08C3003E08C2004108C5001C
:100180004008C400F801F901F701FA014508031D10
:10019000CC2844080319E6281030C6000310C20D0D
:1001A000C30DF70DFA0D45087A02031DD92844083E
:1001B0007702031CE2284408F702031CFA034508EF
:1001C000FA020314F80DF90DC60BCE287908BF000A
:1001D0007808BE003A087807F8007908FA003B086A
:1001E00003183B0FFA077A08F9000800B501330835
:1001F000B400B701B601B901B430B800BB01023098
:10020000BA00BD010A30BC0077207808A9000800B8
:10021000B5013308B400B701B601B901B430B80074
:10022000BB010230BA00BD010A30BC00772078085B
:10023000AA000800B5013308B400B701B601B9013E
:10024000B430B800BB010230BA00BD010A30BC00B6
:1002500077207808AB000800831606168312061A6A
:100260003429B430B300F620831686168312861A1A
:100270003C295A30B3000821831606178312061B47
:100280004429B430B3001A21831686178312861BC3
:100290004F29B301F620B3010821B3011A210B1035
:1002A0008A110A121F2883160108C73908388100ED
:1002B00083128B16C0308B04FB3081008A110A1226
:1002C000702903081F398300A801A70183161F1492
:1002D0009F141F159F1107309C008313831253290D
:1002E0008316811383128B15C0308B04762963002B
:02400E00713F00
:00000001FF
;PIC16F877A
;CRC=10AA  CREATED="20-nov.-24 17:45"
