:020000040000FA
:020000000528D1
:080008005C288316031301308C
:100010008700013086000117831290308B00860123
:100020008701A001A101A2011A20071C14281A208F
:1000300041201728871407118711200830208600D7
:10004000842087100715871121083020860084201E
:1000500087100711871522083020860084200800A9
:1000600082077E340C34B6349E34CC34DA34FA341D
:100070000E34FE34DE34EE34F8347234BC34F234F0
:10008000E234A30A05302302031D0800A301A00ADD
:1000900010302002031D0800A001A10A1030210227
:1000A000031D0800A101A20A10302202031D08004E
:1000B000A101A001A20108008B1C622807161A20CA
:1000C00006185E2807128B100900000000000000CF
:1000D00000000000000008000000A43078280000A4
:1000E000403078281F30782800000E3078280530FE
:1000F0008C008C0B79280800C8308B2864308B2842
:1001000032308B2814308B280A308B2805308B280E
:1001100002308B2801308D00F9308C0000008C0BF0
:100120008E288D0B8C280800C8309F2864309F28AB
:1001300032309F2814309F280A309F2805308E00C7
:1001400064308D00F9308C0000008C0BA4288D0BDE
:08015000A2288E0BA028080074
:02400E00313F40
:00000001FF
