:060000000A128A110C280F
:10000800FE00030EF0000A08F1000A128A111328F4
:100018000A128A110F2883010A128A1139280B1C27
:1000280016281728322883120313061A1C281D289D
:100038001F28F9308700861A222823282528F63019
:100048008700061B282829282B28F8308700861BBC
:100058002E282F283128F13087000B1071088A00CC
:10006800700E8300FE0E7E0E0900831603138701AF
:10007800FF308600811388308B00831203138701B9
:0A008800860145280A128A110C288F
:02400E00313F40
:00000001FF
