:1000000002308A00C42A00000C000C00CD2A4C2AC1
:100010003A10391058102532A01E20002B308400D1
:1000200083130008031922280130F800F701F70BA9
:100030001728F80B16284A30F700F70B1D28202840
:10004000800B1428080032182728081228280816C0
:10005000831608128312B2182F28881230288816A7
:100060008316881283123219372808133828081784
:10007000831608138312B2193F2888134028881763
:10008000831688130000831208148316081048286A
:10009000831208108316081083120800B301831618
:1000A000081600308312081A0130B304831688162C
:1000B00000308312881A0130F7000310F70D77081B
:1000C000B3048316081700308312081B0130F700B1
:1000D000F70DF70DFC30F7057708B3048316881782
:1000E00000308312881B0130F700F70DF70DF70D74
:1000F000F830F7057708B3043308F80008008316D2
:1001000008108810081183128810831688100816AA
:10011000881608178817831208158316081100001F
:100120008312081483160810000083124E207808EA
:10013000B2000810831608100000831208148316FA
:100140000810000083124E207808B10008108316B2
:10015000081008128812081388138312320EF70051
:10016000F030F70577083104F8007808B100B11FC6
:10017000BB2883168728AF08031DC0288810C12814
:100180008814831688100000831208118316081142
:10019000000083120810831608108312300EB1007D
:1001A0000F30B1053108B200232030080F39B100FB
:1001B000B200232008002830A5000C30A600013032
:1001C000A7000630A80008108316081083128810B4
:1001D00083168810831208118316081108128812DA
:1001E000081388130810881008110F308312AB0011
:1001F0000E200130A4002408033C031C072903300F
:10020000B20023200530AB000E20A40AFB280230E8
:10021000B20023200530AB000E20A4012408033CCB
:10022000031C1E2925302407840083130008A9001D
:10023000AF012908B0007F20A40A0E298A110A12F2
:10024000D12A2C0B242927294030AD002829AD01C3
:1002500001302B02AD072D088038AE00AF012E080B
:10026000B0007F2008002A08073A031941290B3AF9
:1002700003194629063A03194E29023A031954294B
:1002800059290130AB00AC0021215E29AF010130BA
:10029000B0007F200230AB000E205E290130AB00A1
:1002A0000230AC0021215E29AF011030B0007F2068
:1002B0005E290130AF002A08B0007F2008000B083B
:1002C000A4008B13831603178C170C140000000076
:1002D00083120313A41B8B1703170C087F39031910
:1002E000B3290313A40003170D080313A500031774
:1002F0000F080313A6002408AA00332125080317BA
:100300008D000313260803178F0003130B08A700A3
:100310008B13831603178C170C1400000000831234
:100320000313A71B8B1703170C0D0E0D7F39031931
:10033000B3290313A40003170D080313A500031723
:100340000F080313A6002408AA0033212508031769
:100350008D000313260803178F008D0A03198F0AD7
:1003600003135F29031703130800F701F80124089A
:1003700003102518F707F70CF80CA518F707F70C6A
:10038000F80C2519F707F70CF80CA519F707F70C67
:10039000F80C251AF707F70CF80CA51AF707F70C55
:1003A000F80C251BF707F70CF80CA51BF707F70C43
:1003B000F80C8A110A12E52A0B08A5008B13831684
:1003C00003178C170C140000000083120313A51BE5
:1003D0008B170318132A03170C087F390313A50082
:1003E00003170D080313A60003170F080313A70034
:1003F0002508AA003321260803178D0003132708B8
:1004000003178F0003130B08A8008B138316031721
:100410008C170C140000000083120313A81B8B1709
:10042000A40B132A322A03170C0D0E0D7F39031368
:10043000A50003170D080313A60003170F080313E5
:10044000A7002508AA003321260803178D000313EF
:10045000270803178F008D0A03198F0A031003134F
:10046000A40BDC298A110A12F52A2B08F8012A02AA
:1004700003183D2A2A08F700492AF7010830AC0082
:10048000AA0DF70D2B0877020318F700F80DAC0B37
:10049000402A08002030251E3030A6002408F7002E
:1004A000A41F5A2AF709F70A7708A4002D30A600DE
:1004B000A51725142408AA006430AB00352277085C
:1004C000A40030307807A7002408AA000A30AB0047
:1004D000352230307707A90030307807A800260889
:1004E000F700303027020319792AA514A51B25151A
:1004F0008D2A2608A7002030A600303028020319D4
:10050000852A2514A51BA5148D2A031D2514031D5A
:100510008D2A2708A8002030A7002519942AA5189D
:10052000972A25189A2A9D2A2608AA0033212708E7
:10053000AA0033212808AA0033212908AA00332160
:10054000080021080F3C031CAB2AA10A2108AB00BC
:100550000230AC00212121080F3C0318B52A2208E3
:10056000AB000230AC002121A203A208031DC12A66
:100570000130A1001030A2002108AB000230AC0015
:1005800021218A110A12042B03081F3983008316C4
:100590001F149F141F159F1107309C008313831293
:1005A000DB28043003178D0000308F0003135F2118
:1005B000053003178D0000308F0003135F21A00A60
:1005C0000930A4002008A500B5297808A30001304F
:1005D000AB00AC002121063003178D0000308F00E6
:1005E00003100A300313A400DC292008A4001830EB
:1005F000A5004A222030AA0033213D30AA00332131
:100600002030AA003321A12A2308A4001830A50015
:100610004A222030AA0033210230A400FA30AB0075
:100620000E20A40B0E2B20080A3C031D192BA00141
:06063000A301D82A6300BB
:02400E00713F00
:00000001FF
;PIC16F877A
;CRC=793A  CREATED="26-nov.-24 22:38"
