:020000040000FA
:100000008A110A1208280000000000000000000009
:10001000283084005830A0008001840AA00B0C28EE
:10002000103095002730960000308E0000308F0091
:10003000013090000B309700831686309F008312AA
:10004000003085008316FF30850083120030860063
:100050008316C03086008312003087008316FF307D
:1000600087008312003088008316FF3088008312D7
:100070000030890083160730890083120C1D3E284A
:100080000C116400A914A9182915A91C2911A9117A
:1000900029192916291D2912061B4F282912291E44
:1000A0005228A91529192916291D2912A91A5928D2
:1000B0002912291E5C28A91529192916291D29127A
:1000C000291B63282912291E6628A915A919291593
:1000D000A91D2911861F6D282911A91F7028291112
:1000E0002919A916291DA912A9182915A91C291110
:1000F000A91A7B282911291D922801302B020319E6
:100100008828A00020092B05A006A01B8D28912877
:10011000F3302A02031C8D289128AA0F9028AB0ADD
:10012000291196280030AA000030AB002919A91720
:10013000291DA913A9182915A91C2911A91AA12833
:10014000291129190615291D0611A9182915A91CF7
:1001500029118618AC282911291DC32800302D0229
:100160000319B928A00020092D05A006A01BBE2850
:10017000C228F9302C02031CBE28C228AC0FC128AB
:10018000AD0A2911C7280030AC000030AD00291994
:100190002E14291D2E10A9182915A91C2911AE10DD
:1001A00029192E15291D2E11A91BD7282E112E1DF8
:1001B000DA28AE1429192E15291D2E118618E128CA
:1001C0002E112E1DE428AE14AE182915AE1C2911CF
:1001D0002E1CEB28291129198614291D8610A9180F
:1001E0002915A91C2911AE1129192E16291D2E1207
:1001F0000619FB282E122E1EFE28AE1529192E16C2
:10020000291D2E12861805292E122E1E0829AE151C
:10021000AE192915AE1D291129198615291D86111A
:10022000A9182915A91C2911061817292911291DF2
:100230002E290230300203192429A000200930059C
:10024000A006A01B29292D29ED302F02031C2929E6
:100250002D29AF0F2C29B00A291132290030AF0007
:100260000030B00029192917291D2913A9182915AB
:10027000A91C2911AE1229192E17291D2E132E186B
:1002800042292E132E1F4529AE1629192E17291D76
:100290002E1306184C292E132E1F4F29AE16AE1AF8
:1002A0002915AE1E2911291F5629291129190614AD
:1002B000291D0610A9182915A91C2911861A6129BA
:1002C0002911291D78290130320203196E29A00055
:1002D00020093205A006A01B73297729F3303102CB
:1002E000031C73297729B10F7629B20A29117C29B9
:1002F0000030B1000030B2002919AE17291DAE132D
:10030000A9182915A91C291133102919B314291D5D
:10031000B3102E188C29B310B31C8F29331429194C
:10032000B314291DB310861A9629B310B31C99294A
:10033000331433182915331C2911AE1FA029291194
:1003400029198616291D8612A9182915A91C2911F3
:1003500033112919B315291DB311AE1BB029B311DF
:10036000B31DB32933152919B315291DB311061A65
:10037000BA29B311B31DBD29331533192915331DFE
:1003800029110618C429291129190616291D061232
:040390008A013E2878
:02400E00723FFF
:00000001FF
