:1000000004308A00B82C00000C00412243103D103F
:10001000252664050000D6274C2A4125C51EA012BE
:10002000311733330016343084008313000803196A
:1000300027280130F800F701F70B1C28F80B1B28C4
:100040004A30F700F70B22282528800B19280800D2
:100050003B0EF039F7000F300805770488000000E8
:1000600008143228081008000808F700080E0F3995
:10007000F8000800831608108810081183128810F1
:100080000F3083160805F038880083120815000029
:100090000814000034207808BB0008100000081481
:1000A000000034207808BA0008100F3083160805C5
:1000B000880083123B0EF700F030F70577083A040A
:1000C000F8007808BA00BA1B4028381C8810381885
:1000D00088140000081100000810390EBA000F3013
:1000E000BA053A08BB00282039080F39BA00BB000E
:1000F000282008002830A7000C30A8000130A900F3
:100100000630AA000810881008110F308316080561
:1001100088000810881008110F308312B4001320D3
:100120000130A6002608033C031C9E280330BB00B8
:1001300028200530B4001320A60A92280230BB0004
:1001400028200530B4001320A6012608033C031C18
:10015000B52827302607840083130008AB00B801B8
:100160002B08B9003A20A60AA5288A110A12D02C19
:10017000350BBB28BE284030B600BF28B601013081
:100180003402B60736088038B700B8013708B9001E
:100190003A2008003308073A0319D8280B3A031904
:1001A000DD28063A0319E528023A0319EB28F0285E
:1001B0000130B400B500B820F528B8010130B9000D
:1001C0003A200230B4001320F5280130B400023088
:1001D000B500B820F528B8011030B9003A20F5284C
:1001E0000130B8003308B9003A2008000B08A60017
:1001F0008B13831603178C170C1400000000831256
:100200000313A61B8B1703170C087F3903194A2900
:100210000313A60003170D080313A70003170F0805
:100220000313A8002608B300CA20270803178D006F
:100230000313280803178F0003130B08A9008B135F
:10024000831603178C170C1400000000831203138D
:10025000A91B8B1703170C0D0E0D7F3903194A29A3
:100260000313A60003170D080313A70003170F08B5
:100270000313A8002608B300CA20270803178D001F
:100280000313280803178F008D0A03198F0A03131D
:10029000F628031703138A110A12D72C8E30F700A1
:1002A0002708F8002608F900FA01F808031D62295A
:1002B0007908F800F9010830F702F808031D6229EF
:1002C000F7016A290310F81B6929F90DF80DF703E6
:1002D0006229F8138A110A12F02C33080319DD2958
:1002E000BB0037080319DD29BB0703187E297F30BF
:1002F000BB02031CDD290319DD2982298130BB07DC
:100300000318DD293B08F700F801F901FA01340868
:10031000BF00BF173508BE003608BD001830BB004F
:10032000BC013D1CAB293A08FA07031C9D29F90AB8
:10033000031D9D29F80A0319BC173908F907031C86
:10034000A429F80A0319BC173808B500B5173508F1
:10035000F8070318BC17BC0DF80CF90CFA0CBF0C0D
:10036000BE0CBD0C0310BB0B90290130F70703181E
:10037000DD29F81BC229BF0DFA0DF90DF80DF703A1
:100380000319DD29BF1FD329FA0A031DD329F90A4E
:10039000031DD329F80A031DD329F80CF90CFA0C14
:1003A000F70A0319DD293408BC003808BC06BC1F55
:1003B000DB29F817E129F813E129F701F801F90120
:1003C000FA0108002A080319A72AB6002E08031903
:1003D000A72AB602031CF1297F30B6070318A72A03
:1003E000F7298130B602031CA72A0319A72A360869
:1003F000F700F801F901FA01B5012B08B400B417B0
:100400002C08B3002D08B2001930B6003108B20232
:1004100003181A2A0130B30203181A2AB402031867
:100420001A2AB50203181A2AB50AB40AB30A3108FF
:10043000B2074C2A3008B3020318352A0130B4023F
:100440000318352AB5020318352AB50AB40A30084C
:10045000B3073108B207031C4C2AB30A031D4C2A08
:10046000B40A031D4C2AB50A4C2A2F088038B4025E
:1004700003184B2A0130B50203184B2AB50A2F087E
:100480008038B4073008B307031C292AB40A031DB7
:10049000292AB50A292A7A14B60B4F2A5A2A031098
:1004A000B20DB30DB40DB50D0310FA0DF90DF80D25
:1004B000B70D062A371C622A0310F80CF90CFA0C47
:1004C000B70C652AF7030319A72AB71B8E2A031056
:1004D000B20DB30DB40DB50D3108B20203187A2A6E
:1004E0000130B30203187A2AB40203187A2AB5023B
:1004F000031C9D2A3008B3020318852A0130B40278
:100500000318852AB502031C9D2A2F088038B402DF
:1005100003188E2A0130B502031C9D2AFA0A031D16
:100520009D2AF90A031D9D2AF80A031D9D2AF70A30
:100530000319A72AF80CF90CFA0C2B08B6002F089F
:10054000B606B61FA52AF817AB2AF813AB2AF7018F
:10055000F801F901FA018A110A12152D0B08A700FA
:100560008B13831603178C170C14000000008312E2
:100570000313A71B8B170318E52A03170C087F39F1
:100580000313A70003170D080313A80003170F0890
:100590000313A9002708B300CA20280803178D00F9
:1005A0000313290803178F0003130B08AA008B13EA
:1005B000831603178C170C1400000000831203131A
:1005C000AA1B8B17A60BE52A042B03170C0D0E0D87
:1005D0007F390313A70003170D080313A80003179F
:1005E0000F080313A9002708B300CA20280803171F
:1005F0008D000313290803178F008D0A03198F0A32
:1006000003100313A60BAE2A0800AE010408AD00C8
:100610002E10831B2E14A71F152BAD172D1EAD0AF0
:10062000A609A709A60A0319A70A270EF038A900E8
:10063000A907E23EAA00323EAC0027080F39AA07FC
:10064000AA07AC07E93EAB00AB07AB07260E0F3994
:10065000AB07AC07AB0DAC0DAC09AC0D26080F39E0
:10066000AC07A90D0730A8000A30AC07AB03031C88
:10067000352BAB07AA03031C392BAA07A903031CBC
:100680003D2BA907A803031C412B283084008313AA
:1006900007302D052D1384032D05031D562B2D1A10
:1006A000840A2D1A562B2030F700732B84072C3028
:1006B000040203192D170008F700031D672B2D1BDB
:1006C000672B2D1A812BAD19672B2030722BAD1F94
:1006D0006F2B2D30F70084032D13AD13732BAD1545
:1006E0002D123030F707A7010408A6002710831B3E
:1006F00027147708B300CA2026088400831327181C
:100700008317840A2D1F572B8A110A12322D831842
:100710008C2B3B3084008313F701F801F901FA01B7
:10072000BB01BC01BD01BE013A08390438043704DD
:100730000319CA2B2030BF000310B30DB40DB50D43
:10074000B60DBB0DBC0DBD0DBE0D3A083E02031D1E
:10075000B32B39083D02031DB32B38083C02031D9F
:10076000B32B37083B02031CC42B3708BB023808E5
:10077000031C380FBC023908031C390FBD023A08AC
:10078000031C3A0FBE020314F70DF80DF90DFA0D14
:10079000BF0B9C2B3B088000840A3C088000840A25
:1007A0003D088000840A3E08800008000408AB0071
:1007B0002A08AD000319F52B2908B6002808B50052
:1007C0002708B4002608B300BA01B9012030B800E8
:1007D0008230B7006D217A08A9007908A80078084E
:1007E000A7007708A600AD0BDC2B2908B600280867
:1007F000B5002708B4002608B3003308B63CB300A0
:10080000FA013408B700B4170310B40CB50CB60CD9
:10081000FA0CF90CF80CF70CB30B042CB71F1B2CBB
:10082000F709F809F909FA09F70A0319F80A031987
:10083000F90A0319FA0A7A08A9007908A8007808C1
:10084000A7007708A600A91F322CAB03AB16A60998
:10085000A709A809A909A60A0319A70A0319A80A3A
:100860000319A90A3B30B2009A30B100CA30B00077
:10087000AF010A30AD002A080319AB0A83142630F1
:10088000840083132908B6002808B5002708B4009F
:100890002608B3003208BA003108B9003008B800A1
:1008A0002F08B70087237808F708031D6A2C2A0A47
:1008B0002D0203196A2C2B0803196C2C0F392D02F9
:1008C0000319642C03189C2CAB1B9C2C2B1B6C2C2D
:1008D0002030982C2030AB05AB1E7A2CAB122A08A6
:1008E000031DAB037708AB002D30B300CA202B08E3
:1008F000F700AB012A082D02031D882C7708AB00F6
:100900002E30B300CA202B08F7002030AB05003092
:100910003030AB1E982CAB122A08031DAB037708AE
:10092000AB002D30B300CA202B08F700AB013030EC
:10093000F7077708B300CA2083103208B6003108E1
:10094000B5003008B4002F08B300BA01B901B801EE
:100950000A30B70087237A08B2007908B100780816
:10096000B0007708AF00AD0B3E2C8A110A124C2D57
:1009700003081F39830083161F149F141F159F112E
:1009800007309C0083131F109F141F159F151F1302
:1009900083121F179F1783169F1783121F147A281D
:1009A000043003178D0000308F000313F628003049
:1009B000F8001F08C73978049F000630F700F70BCE
:1009C000DF2C00001F151F19E32C83161E0883124D
:1009D000A0001E08A1002108A7002008A6004E299B
:1009E000B601B5012030B4008130B3007A08BA00F6
:1009F0007908B9007808B8007708B7006D217A083F
:100A0000A9007908A8007808A7007708A6007A0846
:100A1000AD007908AC007808AB007708AA00B101F6
:100A2000B001AF018930AE00E2297A08A50079084B
:100A3000A4007808A3007708A2000130B400B50034
:100A4000B820053003178D0000308F0003100630EA
:100A50000313A600AE22103084002108A70020084E
:100A6000A600052B0A30B300CA200B3003178D00F7
:100A700000308F00031009300313A600AE22893026
:100A800084002508A9002408A8002308A70022083C
:0C0A9000A6000330AA00D62BD72C630070
:02400E00713F00
:00000001FF
;PIC16F877A
;CRC=3041  CREATED="15-ene.-25 11:12"
