:020000040000FA
:100000008A110A1208280000000000000000000009
:10001000283084005830A0008001840AA00B0C28EE
:10002000103095002730960000308E0000308F0091
:10003000013090000B309700831686309F008312AA
:10004000003085008316FF30850083120030860063
:100050008316E33086008312003087008316FF305A
:1000600087008312003088008316FF3088008312D7
:100070000030890083160730890083120C1D3E284A
:100080000C116400A914A9182915A91C2911A9117A
:1000900029192916291D291206184F282912291E47
:1000A0005228A91529192916291D291286195928F6
:1000B0002912291E5C28A915A9192915A91D29117C
:1000C000861C6328291129198615291D8611A9184E
:1000D0002915A91C291186196E282911291D852881
:1000E00000302B0203197B28A00020092B05A00655
:1000F000A01B80288428C7302A02031C802884285B
:10010000AA0F8328AB0A291189280030AA000030E1
:10011000AB002919A916291DA912A9182915A91C6E
:100120002911861994282911A91E972829112919FE
:100130000615291D0611A9182915A91C29118619AA
:10014000A2282911A91AA528291129190616291D3D
:0601500006128A013E28A0
:02400E00723FFF
:00000001FF
